{
  "_format": "hh-sol-artifact-1",
  "contractName": "BlockBadgeSBT",
  "sourceName": "contracts/BlockBadgeSBT.sol",
  "abi": [
    {
      "inputs": [],
      "stateMutability": "nonpayable",
      "type": "constructor"
    },
    {
      "anonymous": false,
      "inputs": [
        {
          "indexed": true,
          "internalType": "address",
          "name": "owner",
          "type": "address"
        },
        {
          "indexed": true,
          "internalType": "address",
          "name": "approved",
          "type": "address"
        },
        {
          "indexed": true,
          "internalType": "uint256",
          "name": "tokenId",
          "type": "uint256"
        }
      ],
      "name": "Approval",
      "type": "event"
    },
    {
      "anonymous": false,
      "inputs": [
        {
          "indexed": true,
          "internalType": "address",
          "name": "owner",
          "type": "address"
        },
        {
          "indexed": true,
          "internalType": "address",
          "name": "operator",
          "type": "address"
        },
        {
          "indexed": false,
          "internalType": "bool",
          "name": "approved",
          "type": "bool"
        }
      ],
      "name": "ApprovalForAll",
      "type": "event"
    },
    {
      "anonymous": false,
      "inputs": [
        {
          "indexed": true,
          "internalType": "address",
          "name": "previousOwner",
          "type": "address"
        },
        {
          "indexed": true,
          "internalType": "address",
          "name": "newOwner",
          "type": "address"
        }
      ],
      "name": "OwnershipTransferred",
      "type": "event"
    },
    {
      "anonymous": false,
      "inputs": [
        {
          "indexed": true,
          "internalType": "address",
          "name": "from",
          "type": "address"
        },
        {
          "indexed": true,
          "internalType": "address",
          "name": "to",
          "type": "address"
        },
        {
          "indexed": true,
          "internalType": "uint256",
          "name": "tokenId",
          "type": "uint256"
        }
      ],
      "name": "Transfer",
      "type": "event"
    },
    {
      "inputs": [
        {
          "internalType": "address",
          "name": "to",
          "type": "address"
        }
      ],
      "name": "_safeMint",
      "outputs": [],
      "stateMutability": "nonpayable",
      "type": "function"
    },
    {
      "inputs": [
        {
          "internalType": "address",
          "name": "to",
          "type": "address"
        },
        {
          "internalType": "uint256",
          "name": "tokenId",
          "type": "uint256"
        }
      ],
      "name": "approve",
      "outputs": [],
      "stateMutability": "nonpayable",
      "type": "function"
    },
    {
      "inputs": [
        {
          "internalType": "address",
          "name": "owner",
          "type": "address"
        }
      ],
      "name": "balanceOf",
      "outputs": [
        {
          "internalType": "uint256",
          "name": "",
          "type": "uint256"
        }
      ],
      "stateMutability": "view",
      "type": "function"
    },
    {
      "inputs": [
        {
          "internalType": "uint256",
          "name": "tokenId",
          "type": "uint256"
        }
      ],
      "name": "getApproved",
      "outputs": [
        {
          "internalType": "address",
          "name": "",
          "type": "address"
        }
      ],
      "stateMutability": "view",
      "type": "function"
    },
    {
      "inputs": [
        {
          "internalType": "address",
          "name": "owner",
          "type": "address"
        },
        {
          "internalType": "address",
          "name": "operator",
          "type": "address"
        }
      ],
      "name": "isApprovedForAll",
      "outputs": [
        {
          "internalType": "bool",
          "name": "",
          "type": "bool"
        }
      ],
      "stateMutability": "view",
      "type": "function"
    },
    {
      "inputs": [],
      "name": "name",
      "outputs": [
        {
          "internalType": "string",
          "name": "",
          "type": "string"
        }
      ],
      "stateMutability": "view",
      "type": "function"
    },
    {
      "inputs": [],
      "name": "owner",
      "outputs": [
        {
          "internalType": "address",
          "name": "",
          "type": "address"
        }
      ],
      "stateMutability": "view",
      "type": "function"
    },
    {
      "inputs": [
        {
          "internalType": "uint256",
          "name": "tokenId",
          "type": "uint256"
        }
      ],
      "name": "ownerOf",
      "outputs": [
        {
          "internalType": "address",
          "name": "",
          "type": "address"
        }
      ],
      "stateMutability": "view",
      "type": "function"
    },
    {
      "inputs": [],
      "name": "renounceOwnership",
      "outputs": [],
      "stateMutability": "nonpayable",
      "type": "function"
    },
    {
      "inputs": [
        {
          "internalType": "address",
          "name": "from",
          "type": "address"
        },
        {
          "internalType": "address",
          "name": "to",
          "type": "address"
        },
        {
          "internalType": "uint256",
          "name": "tokenId",
          "type": "uint256"
        }
      ],
      "name": "safeTransferFrom",
      "outputs": [],
      "stateMutability": "nonpayable",
      "type": "function"
    },
    {
      "inputs": [
        {
          "internalType": "address",
          "name": "from",
          "type": "address"
        },
        {
          "internalType": "address",
          "name": "to",
          "type": "address"
        },
        {
          "internalType": "uint256",
          "name": "tokenId",
          "type": "uint256"
        },
        {
          "internalType": "bytes",
          "name": "data",
          "type": "bytes"
        }
      ],
      "name": "safeTransferFrom",
      "outputs": [],
      "stateMutability": "nonpayable",
      "type": "function"
    },
    {
      "inputs": [
        {
          "internalType": "address",
          "name": "operator",
          "type": "address"
        },
        {
          "internalType": "bool",
          "name": "approved",
          "type": "bool"
        }
      ],
      "name": "setApprovalForAll",
      "outputs": [],
      "stateMutability": "nonpayable",
      "type": "function"
    },
    {
      "inputs": [
        {
          "internalType": "string",
          "name": "_tokenURI",
          "type": "string"
        }
      ],
      "name": "setTokenURI",
      "outputs": [],
      "stateMutability": "nonpayable",
      "type": "function"
    },
    {
      "inputs": [
        {
          "internalType": "bytes4",
          "name": "interfaceId",
          "type": "bytes4"
        }
      ],
      "name": "supportsInterface",
      "outputs": [
        {
          "internalType": "bool",
          "name": "",
          "type": "bool"
        }
      ],
      "stateMutability": "view",
      "type": "function"
    },
    {
      "inputs": [],
      "name": "symbol",
      "outputs": [
        {
          "internalType": "string",
          "name": "",
          "type": "string"
        }
      ],
      "stateMutability": "view",
      "type": "function"
    },
    {
      "inputs": [
        {
          "internalType": "uint256",
          "name": "tokenId",
          "type": "uint256"
        }
      ],
      "name": "tokenURI",
      "outputs": [
        {
          "internalType": "string",
          "name": "",
          "type": "string"
        }
      ],
      "stateMutability": "view",
      "type": "function"
    },
    {
      "inputs": [
        {
          "internalType": "address",
          "name": "from",
          "type": "address"
        },
        {
          "internalType": "address",
          "name": "to",
          "type": "address"
        },
        {
          "internalType": "uint256",
          "name": "tokenId",
          "type": "uint256"
        }
      ],
      "name": "transferFrom",
      "outputs": [],
      "stateMutability": "nonpayable",
      "type": "function"
    },
    {
      "inputs": [
        {
          "internalType": "address",
          "name": "newOwner",
          "type": "address"
        }
      ],
      "name": "transferOwnership",
      "outputs": [],
      "stateMutability": "nonpayable",
      "type": "function"
    }
  ],
  "bytecode": "0x6080604052604051806020016040528060008152506008908162000024919062000433565b503480156200003257600080fd5b506040518060400160405280600d81526020017f426c6f636b4261646765534254000000000000000000000000000000000000008152506040518060400160405280600381526020017f424c4b00000000000000000000000000000000000000000000000000000000008152508160009081620000b0919062000433565b508060019081620000c2919062000433565b505050620000e5620000d9620000eb60201b60201c565b620000f360201b60201c565b6200051a565b600033905090565b6000600660009054906101000a900473ffffffffffffffffffffffffffffffffffffffff16905081600660006101000a81548173ffffffffffffffffffffffffffffffffffffffff021916908373ffffffffffffffffffffffffffffffffffffffff1602179055508173ffffffffffffffffffffffffffffffffffffffff168173ffffffffffffffffffffffffffffffffffffffff167f8be0079c531659141344cd1fd0a4f28419497f9722a3daafe3b4186f6b6457e060405160405180910390a35050565b600081519050919050565b7f4e487b7100000000000000000000000000000000000000000000000000000000600052604160045260246000fd5b7f4e487b7100000000000000000000000000000000000000000000000000000000600052602260045260246000fd5b600060028204905060018216806200023b57607f821691505b602082108103620002515762000250620001f3565b5b50919050565b60008190508160005260206000209050919050565b60006020601f8301049050919050565b600082821b905092915050565b600060088302620002bb7fffffffffffffffffffffffffffffffffffffffffffffffffffffffffffffffff826200027c565b620002c786836200027c565b95508019841693508086168417925050509392505050565b6000819050919050565b6000819050919050565b6000620003146200030e6200030884620002df565b620002e9565b620002df565b9050919050565b6000819050919050565b6200033083620002f3565b620003486200033f826200031b565b84845462000289565b825550505050565b600090565b6200035f62000350565b6200036c81848462000325565b505050565b5b8181101562000394576200038860008262000355565b60018101905062000372565b5050565b601f821115620003e357620003ad8162000257565b620003b8846200026c565b81016020851015620003c8578190505b620003e0620003d7856200026c565b83018262000371565b50505b505050565b600082821c905092915050565b60006200040860001984600802620003e8565b1980831691505092915050565b6000620004238383620003f5565b9150826002028217905092915050565b6200043e82620001b9565b67ffffffffffffffff8111156200045a5762000459620001c4565b5b62000466825462000222565b6200047382828562000398565b600060209050601f831160018114620004ab576000841562000496578287015190505b620004a2858262000415565b86555062000512565b601f198416620004bb8662000257565b60005b82811015620004e557848901518255600182019150602085019450602081019050620004be565b8683101562000505578489015162000501601f891682620003f5565b8355505b6001600288020188555050505b505050505050565b612b0f806200052a6000396000f3fe608060405234801561001057600080fd5b50600436106101165760003560e01c80638da5cb5b116100a2578063b88d4fde11610071578063b88d4fde146102cb578063c87b56dd146102e7578063e0df5b6f14610317578063e985e9c514610333578063f2fde38b1461036357610116565b80638da5cb5b1461025757806395d89b4114610275578063a031c83214610293578063a22cb465146102af57610116565b806323b872dd116100e957806323b872dd146101b557806342842e0e146101d15780636352211e146101ed57806370a082311461021d578063715018a61461024d57610116565b806301ffc9a71461011b57806306fdde031461014b578063081812fc14610169578063095ea7b314610199575b600080fd5b61013560048036038101906101309190611910565b61037f565b6040516101429190611958565b60405180910390f35b610153610461565b6040516101609190611a03565b60405180910390f35b610183600480360381019061017e9190611a5b565b6104f3565b6040516101909190611ac9565b60405180910390f35b6101b360048036038101906101ae9190611b10565b610539565b005b6101cf60048036038101906101ca9190611b50565b610650565b005b6101eb60048036038101906101e69190611b50565b6106b0565b005b61020760048036038101906102029190611a5b565b6106d0565b6040516102149190611ac9565b60405180910390f35b61023760048036038101906102329190611ba3565b610756565b6040516102449190611bdf565b60405180910390f35b61025561080d565b005b61025f610821565b60405161026c9190611ac9565b60405180910390f35b61027d61084b565b60405161028a9190611a03565b60405180910390f35b6102ad60048036038101906102a89190611ba3565b6108dd565b005b6102c960048036038101906102c49190611c26565b610903565b005b6102e560048036038101906102e09190611d9b565b610919565b005b61030160048036038101906102fc9190611a5b565b61097b565b60405161030e9190611a03565b60405180910390f35b610331600480360381019061032c9190611ebf565b610a57565b005b61034d60048036038101906103489190611f08565b610a6a565b60405161035a9190611958565b60405180910390f35b61037d60048036038101906103789190611ba3565b610afe565b005b60007f80ac58cd000000000000000000000000000000000000000000000000000000007bffffffffffffffffffffffffffffffffffffffffffffffffffffffff1916827bffffffffffffffffffffffffffffffffffffffffffffffffffffffff1916148061044a57507f5b5e139f000000000000000000000000000000000000000000000000000000007bffffffffffffffffffffffffffffffffffffffffffffffffffffffff1916827bffffffffffffffffffffffffffffffffffffffffffffffffffffffff1916145b8061045a575061045982610b81565b5b9050919050565b60606000805461047090611f77565b80601f016020809104026020016040519081016040528092919081815260200182805461049c90611f77565b80156104e95780601f106104be576101008083540402835291602001916104e9565b820191906000526020600020905b8154815290600101906020018083116104cc57829003601f168201915b5050505050905090565b60006104fe82610beb565b6004600083815260200190815260200160002060009054906101000a900473ffffffffffffffffffffffffffffffffffffffff169050919050565b6000610544826106d0565b90508073ffffffffffffffffffffffffffffffffffffffff168373ffffffffffffffffffffffffffffffffffffffff16036105b4576040517f08c379a00000000000000000000000000000000000000000000000000000000081526004016105ab9061201a565b60405180910390fd5b8073ffffffffffffffffffffffffffffffffffffffff166105d3610c36565b73ffffffffffffffffffffffffffffffffffffffff1614806106025750610601816105fc610c36565b610a6a565b5b610641576040517f08c379a0000000000000000000000000000000000000000000000000000000008152600401610638906120ac565b60405180910390fd5b61064b8383610c3e565b505050565b61066161065b610c36565b82610cf7565b6106a0576040517f08c379a00000000000000000000000000000000000000000000000000000000081526004016106979061213e565b60405180910390fd5b6106ab838383610d8c565b505050565b6106cb83838360405180602001604052806000815250610919565b505050565b6000806106dc83611085565b9050600073ffffffffffffffffffffffffffffffffffffffff168173ffffffffffffffffffffffffffffffffffffffff160361074d576040517f08c379a0000000000000000000000000000000000000000000000000000000008152600401610744906121aa565b60405180910390fd5b80915050919050565b60008073ffffffffffffffffffffffffffffffffffffffff168273ffffffffffffffffffffffffffffffffffffffff16036107c6576040517f08c379a00000000000000000000000000000000000000000000000000000000081526004016107bd9061223c565b60405180910390fd5b600360008373ffffffffffffffffffffffffffffffffffffffff1673ffffffffffffffffffffffffffffffffffffffff168152602001908152602001600020549050919050565b6108156110c2565b61081f6000611140565b565b6000600660009054906101000a900473ffffffffffffffffffffffffffffffffffffffff16905090565b60606001805461085a90611f77565b80601f016020809104026020016040519081016040528092919081815260200182805461088690611f77565b80156108d35780601f106108a8576101008083540402835291602001916108d3565b820191906000526020600020905b8154815290600101906020018083116108b657829003601f168201915b5050505050905090565b60006108e96007611206565b90506108f56007611214565b6108ff828261122a565b5050565b61091561090e610c36565b8383611248565b5050565b61092a610924610c36565b83610cf7565b610969576040517f08c379a00000000000000000000000000000000000000000000000000000000081526004016109609061213e565b60405180910390fd5b610975848484846113b4565b50505050565b606061098682611435565b6109c5576040517f08c379a00000000000000000000000000000000000000000000000000000000081526004016109bc906122ce565b60405180910390fd5b600880546109d290611f77565b80601f01602080910402602001604051908101604052809291908181526020018280546109fe90611f77565b8015610a4b5780601f10610a2057610100808354040283529160200191610a4b565b820191906000526020600020905b815481529060010190602001808311610a2e57829003601f168201915b50505050509050919050565b8060089081610a66919061249a565b5050565b6000600560008473ffffffffffffffffffffffffffffffffffffffff1673ffffffffffffffffffffffffffffffffffffffff16815260200190815260200160002060008373ffffffffffffffffffffffffffffffffffffffff1673ffffffffffffffffffffffffffffffffffffffff16815260200190815260200160002060009054906101000a900460ff16905092915050565b610b066110c2565b600073ffffffffffffffffffffffffffffffffffffffff168173ffffffffffffffffffffffffffffffffffffffff1603610b75576040517f08c379a0000000000000000000000000000000000000000000000000000000008152600401610b6c906125de565b60405180910390fd5b610b7e81611140565b50565b60007f01ffc9a7000000000000000000000000000000000000000000000000000000007bffffffffffffffffffffffffffffffffffffffffffffffffffffffff1916827bffffffffffffffffffffffffffffffffffffffffffffffffffffffff1916149050919050565b610bf481611435565b610c33576040517f08c379a0000000000000000000000000000000000000000000000000000000008152600401610c2a906121aa565b60405180910390fd5b50565b600033905090565b816004600083815260200190815260200160002060006101000a81548173ffffffffffffffffffffffffffffffffffffffff021916908373ffffffffffffffffffffffffffffffffffffffff160217905550808273ffffffffffffffffffffffffffffffffffffffff16610cb1836106d0565b73ffffffffffffffffffffffffffffffffffffffff167f8c5be1e5ebec7d5bd14f71427d1e84f3dd0314c0f7b2291e5b200ac8c7c3b92560405160405180910390a45050565b600080610d03836106d0565b90508073ffffffffffffffffffffffffffffffffffffffff168473ffffffffffffffffffffffffffffffffffffffff161480610d455750610d448185610a6a565b5b80610d8357508373ffffffffffffffffffffffffffffffffffffffff16610d6b846104f3565b73ffffffffffffffffffffffffffffffffffffffff16145b91505092915050565b8273ffffffffffffffffffffffffffffffffffffffff16610dac826106d0565b73ffffffffffffffffffffffffffffffffffffffff1614610e02576040517f08c379a0000000000000000000000000000000000000000000000000000000008152600401610df990612670565b60405180910390fd5b600073ffffffffffffffffffffffffffffffffffffffff168273ffffffffffffffffffffffffffffffffffffffff1603610e71576040517f08c379a0000000000000000000000000000000000000000000000000000000008152600401610e6890612702565b60405180910390fd5b610e7e8383836001611476565b8273ffffffffffffffffffffffffffffffffffffffff16610e9e826106d0565b73ffffffffffffffffffffffffffffffffffffffff1614610ef4576040517f08c379a0000000000000000000000000000000000000000000000000000000008152600401610eeb90612670565b60405180910390fd5b6004600082815260200190815260200160002060006101000a81549073ffffffffffffffffffffffffffffffffffffffff02191690556001600360008573ffffffffffffffffffffffffffffffffffffffff1673ffffffffffffffffffffffffffffffffffffffff168152602001908152602001600020600082825403925050819055506001600360008473ffffffffffffffffffffffffffffffffffffffff1673ffffffffffffffffffffffffffffffffffffffff16815260200190815260200160002060008282540192505081905550816002600083815260200190815260200160002060006101000a81548173ffffffffffffffffffffffffffffffffffffffff021916908373ffffffffffffffffffffffffffffffffffffffff160217905550808273ffffffffffffffffffffffffffffffffffffffff168473ffffffffffffffffffffffffffffffffffffffff167fddf252ad1be2c89b69c2b068fc378daa952ba7f163c4a11628f55a4df523b3ef60405160405180910390a4611080838383600161147c565b505050565b60006002600083815260200190815260200160002060009054906101000a900473ffffffffffffffffffffffffffffffffffffffff169050919050565b6110ca610c36565b73ffffffffffffffffffffffffffffffffffffffff166110e8610821565b73ffffffffffffffffffffffffffffffffffffffff161461113e576040517f08c379a00000000000000000000000000000000000000000000000000000000081526004016111359061276e565b60405180910390fd5b565b6000600660009054906101000a900473ffffffffffffffffffffffffffffffffffffffff16905081600660006101000a81548173ffffffffffffffffffffffffffffffffffffffff021916908373ffffffffffffffffffffffffffffffffffffffff1602179055508173ffffffffffffffffffffffffffffffffffffffff168173ffffffffffffffffffffffffffffffffffffffff167f8be0079c531659141344cd1fd0a4f28419497f9722a3daafe3b4186f6b6457e060405160405180910390a35050565b600081600001549050919050565b6001816000016000828254019250508190555050565b611244828260405180602001604052806000815250611482565b5050565b8173ffffffffffffffffffffffffffffffffffffffff168373ffffffffffffffffffffffffffffffffffffffff16036112b6576040517f08c379a00000000000000000000000000000000000000000000000000000000081526004016112ad906127da565b60405180910390fd5b80600560008573ffffffffffffffffffffffffffffffffffffffff1673ffffffffffffffffffffffffffffffffffffffff16815260200190815260200160002060008473ffffffffffffffffffffffffffffffffffffffff1673ffffffffffffffffffffffffffffffffffffffff16815260200190815260200160002060006101000a81548160ff0219169083151502179055508173ffffffffffffffffffffffffffffffffffffffff168373ffffffffffffffffffffffffffffffffffffffff167f17307eab39ab6107e8899845ad3d59bd9653f200f220920489ca2b5937696c31836040516113a79190611958565b60405180910390a3505050565b600073ffffffffffffffffffffffffffffffffffffffff168473ffffffffffffffffffffffffffffffffffffffff1614611423576040517f08c379a000000000000000000000000000000000000000000000000000000000815260040161141a9061286c565b60405180910390fd5b61142f848484846113b4565b50505050565b60008073ffffffffffffffffffffffffffffffffffffffff1661145783611085565b73ffffffffffffffffffffffffffffffffffffffff1614159050919050565b50505050565b50505050565b61148c83836114dd565b61149960008484846116fa565b6114d8576040517f08c379a00000000000000000000000000000000000000000000000000000000081526004016114cf906128fe565b60405180910390fd5b505050565b600073ffffffffffffffffffffffffffffffffffffffff168273ffffffffffffffffffffffffffffffffffffffff160361154c576040517f08c379a00000000000000000000000000000000000000000000000000000000081526004016115439061296a565b60405180910390fd5b61155581611435565b15611595576040517f08c379a000000000000000000000000000000000000000000000000000000000815260040161158c906129d6565b60405180910390fd5b6115a3600083836001611476565b6115ac81611435565b156115ec576040517f08c379a00000000000000000000000000000000000000000000000000000000081526004016115e3906129d6565b60405180910390fd5b6001600360008473ffffffffffffffffffffffffffffffffffffffff1673ffffffffffffffffffffffffffffffffffffffff16815260200190815260200160002060008282540192505081905550816002600083815260200190815260200160002060006101000a81548173ffffffffffffffffffffffffffffffffffffffff021916908373ffffffffffffffffffffffffffffffffffffffff160217905550808273ffffffffffffffffffffffffffffffffffffffff16600073ffffffffffffffffffffffffffffffffffffffff167fddf252ad1be2c89b69c2b068fc378daa952ba7f163c4a11628f55a4df523b3ef60405160405180910390a46116f660008383600161147c565b5050565b600061171b8473ffffffffffffffffffffffffffffffffffffffff16611881565b15611874578373ffffffffffffffffffffffffffffffffffffffff1663150b7a02611744610c36565b8786866040518563ffffffff1660e01b81526004016117669493929190612a4b565b6020604051808303816000875af19250505080156117a257506040513d601f19601f8201168201806040525081019061179f9190612aac565b60015b611824573d80600081146117d2576040519150601f19603f3d011682016040523d82523d6000602084013e6117d7565b606091505b50600081510361181c576040517f08c379a0000000000000000000000000000000000000000000000000000000008152600401611813906128fe565b60405180910390fd5b805181602001fd5b63150b7a0260e01b7bffffffffffffffffffffffffffffffffffffffffffffffffffffffff1916817bffffffffffffffffffffffffffffffffffffffffffffffffffffffff191614915050611879565b600190505b949350505050565b6000808273ffffffffffffffffffffffffffffffffffffffff163b119050919050565b6000604051905090565b600080fd5b600080fd5b60007fffffffff0000000000000000000000000000000000000000000000000000000082169050919050565b6118ed816118b8565b81146118f857600080fd5b50565b60008135905061190a816118e4565b92915050565b600060208284031215611926576119256118ae565b5b6000611934848285016118fb565b91505092915050565b60008115159050919050565b6119528161193d565b82525050565b600060208201905061196d6000830184611949565b92915050565b600081519050919050565b600082825260208201905092915050565b60005b838110156119ad578082015181840152602081019050611992565b60008484015250505050565b6000601f19601f8301169050919050565b60006119d582611973565b6119df818561197e565b93506119ef81856020860161198f565b6119f8816119b9565b840191505092915050565b60006020820190508181036000830152611a1d81846119ca565b905092915050565b6000819050919050565b611a3881611a25565b8114611a4357600080fd5b50565b600081359050611a5581611a2f565b92915050565b600060208284031215611a7157611a706118ae565b5b6000611a7f84828501611a46565b91505092915050565b600073ffffffffffffffffffffffffffffffffffffffff82169050919050565b6000611ab382611a88565b9050919050565b611ac381611aa8565b82525050565b6000602082019050611ade6000830184611aba565b92915050565b611aed81611aa8565b8114611af857600080fd5b50565b600081359050611b0a81611ae4565b92915050565b60008060408385031215611b2757611b266118ae565b5b6000611b3585828601611afb565b9250506020611b4685828601611a46565b9150509250929050565b600080600060608486031215611b6957611b686118ae565b5b6000611b7786828701611afb565b9350506020611b8886828701611afb565b9250506040611b9986828701611a46565b9150509250925092565b600060208284031215611bb957611bb86118ae565b5b6000611bc784828501611afb565b91505092915050565b611bd981611a25565b82525050565b6000602082019050611bf46000830184611bd0565b92915050565b611c038161193d565b8114611c0e57600080fd5b50565b600081359050611c2081611bfa565b92915050565b60008060408385031215611c3d57611c3c6118ae565b5b6000611c4b85828601611afb565b9250506020611c5c85828601611c11565b9150509250929050565b600080fd5b600080fd5b7f4e487b7100000000000000000000000000000000000000000000000000000000600052604160045260246000fd5b611ca8826119b9565b810181811067ffffffffffffffff82111715611cc757611cc6611c70565b5b80604052505050565b6000611cda6118a4565b9050611ce68282611c9f565b919050565b600067ffffffffffffffff821115611d0657611d05611c70565b5b611d0f826119b9565b9050602081019050919050565b82818337600083830152505050565b6000611d3e611d3984611ceb565b611cd0565b905082815260208101848484011115611d5a57611d59611c6b565b5b611d65848285611d1c565b509392505050565b600082601f830112611d8257611d81611c66565b5b8135611d92848260208601611d2b565b91505092915050565b60008060008060808587031215611db557611db46118ae565b5b6000611dc387828801611afb565b9450506020611dd487828801611afb565b9350506040611de587828801611a46565b925050606085013567ffffffffffffffff811115611e0657611e056118b3565b5b611e1287828801611d6d565b91505092959194509250565b600067ffffffffffffffff821115611e3957611e38611c70565b5b611e42826119b9565b9050602081019050919050565b6000611e62611e5d84611e1e565b611cd0565b905082815260208101848484011115611e7e57611e7d611c6b565b5b611e89848285611d1c565b509392505050565b600082601f830112611ea657611ea5611c66565b5b8135611eb6848260208601611e4f565b91505092915050565b600060208284031215611ed557611ed46118ae565b5b600082013567ffffffffffffffff811115611ef357611ef26118b3565b5b611eff84828501611e91565b91505092915050565b60008060408385031215611f1f57611f1e6118ae565b5b6000611f2d85828601611afb565b9250506020611f3e85828601611afb565b9150509250929050565b7f4e487b7100000000000000000000000000000000000000000000000000000000600052602260045260246000fd5b60006002820490506001821680611f8f57607f821691505b602082108103611fa257611fa1611f48565b5b50919050565b7f4552433732313a20617070726f76616c20746f2063757272656e74206f776e6560008201527f7200000000000000000000000000000000000000000000000000000000000000602082015250565b600061200460218361197e565b915061200f82611fa8565b604082019050919050565b6000602082019050818103600083015261203381611ff7565b9050919050565b7f4552433732313a20617070726f76652063616c6c6572206973206e6f7420746f60008201527f6b656e206f776e6572206f7220617070726f76656420666f7220616c6c000000602082015250565b6000612096603d8361197e565b91506120a18261203a565b604082019050919050565b600060208201905081810360008301526120c581612089565b9050919050565b7f4552433732313a2063616c6c6572206973206e6f7420746f6b656e206f776e6560008201527f72206f7220617070726f76656400000000000000000000000000000000000000602082015250565b6000612128602d8361197e565b9150612133826120cc565b604082019050919050565b600060208201905081810360008301526121578161211b565b9050919050565b7f4552433732313a20696e76616c696420746f6b656e2049440000000000000000600082015250565b600061219460188361197e565b915061219f8261215e565b602082019050919050565b600060208201905081810360008301526121c381612187565b9050919050565b7f4552433732313a2061646472657373207a65726f206973206e6f74206120766160008201527f6c6964206f776e65720000000000000000000000000000000000000000000000602082015250565b600061222660298361197e565b9150612231826121ca565b604082019050919050565b6000602082019050818103600083015261225581612219565b9050919050565b7f4552433732314d657461646174613a2055524920717565727920666f72206e6f60008201527f6e6578697374656e7420746f6b656e0000000000000000000000000000000000602082015250565b60006122b8602f8361197e565b91506122c38261225c565b604082019050919050565b600060208201905081810360008301526122e7816122ab565b9050919050565b60008190508160005260206000209050919050565b60006020601f8301049050919050565b600082821b905092915050565b6000600883026123507fffffffffffffffffffffffffffffffffffffffffffffffffffffffffffffffff82612313565b61235a8683612313565b95508019841693508086168417925050509392505050565b6000819050919050565b600061239761239261238d84611a25565b612372565b611a25565b9050919050565b6000819050919050565b6123b18361237c565b6123c56123bd8261239e565b848454612320565b825550505050565b600090565b6123da6123cd565b6123e58184846123a8565b505050565b5b81811015612409576123fe6000826123d2565b6001810190506123eb565b5050565b601f82111561244e5761241f816122ee565b61242884612303565b81016020851015612437578190505b61244b61244385612303565b8301826123ea565b50505b505050565b600082821c905092915050565b600061247160001984600802612453565b1980831691505092915050565b600061248a8383612460565b9150826002028217905092915050565b6124a382611973565b67ffffffffffffffff8111156124bc576124bb611c70565b5b6124c68254611f77565b6124d182828561240d565b600060209050601f83116001811461250457600084156124f2578287015190505b6124fc858261247e565b865550612564565b601f198416612512866122ee565b60005b8281101561253a57848901518255600182019150602085019450602081019050612515565b868310156125575784890151612553601f891682612460565b8355505b6001600288020188555050505b505050505050565b7f4f776e61626c653a206e6577206f776e657220697320746865207a65726f206160008201527f6464726573730000000000000000000000000000000000000000000000000000602082015250565b60006125c860268361197e565b91506125d38261256c565b604082019050919050565b600060208201905081810360008301526125f7816125bb565b9050919050565b7f4552433732313a207472616e736665722066726f6d20696e636f72726563742060008201527f6f776e6572000000000000000000000000000000000000000000000000000000602082015250565b600061265a60258361197e565b9150612665826125fe565b604082019050919050565b600060208201905081810360008301526126898161264d565b9050919050565b7f4552433732313a207472616e7366657220746f20746865207a65726f2061646460008201527f7265737300000000000000000000000000000000000000000000000000000000602082015250565b60006126ec60248361197e565b91506126f782612690565b604082019050919050565b6000602082019050818103600083015261271b816126df565b9050919050565b7f4f776e61626c653a2063616c6c6572206973206e6f7420746865206f776e6572600082015250565b600061275860208361197e565b915061276382612722565b602082019050919050565b600060208201905081810360008301526127878161274b565b9050919050565b7f4552433732313a20617070726f766520746f2063616c6c657200000000000000600082015250565b60006127c460198361197e565b91506127cf8261278e565b602082019050919050565b600060208201905081810360008301526127f3816127b7565b9050919050565b7f54686973206120536f756c626f756e6420746f6b656e2e2049742063616e6e6f60008201527f74206265207472616e736665727265642e000000000000000000000000000000602082015250565b600061285660318361197e565b9150612861826127fa565b604082019050919050565b6000602082019050818103600083015261288581612849565b9050919050565b7f4552433732313a207472616e7366657220746f206e6f6e20455243373231526560008201527f63656976657220696d706c656d656e7465720000000000000000000000000000602082015250565b60006128e860328361197e565b91506128f38261288c565b604082019050919050565b60006020820190508181036000830152612917816128db565b9050919050565b7f4552433732313a206d696e7420746f20746865207a65726f2061646472657373600082015250565b600061295460208361197e565b915061295f8261291e565b602082019050919050565b6000602082019050818103600083015261298381612947565b9050919050565b7f4552433732313a20746f6b656e20616c7265616479206d696e74656400000000600082015250565b60006129c0601c8361197e565b91506129cb8261298a565b602082019050919050565b600060208201905081810360008301526129ef816129b3565b9050919050565b600081519050919050565b600082825260208201905092915050565b6000612a1d826129f6565b612a278185612a01565b9350612a3781856020860161198f565b612a40816119b9565b840191505092915050565b6000608082019050612a606000830187611aba565b612a6d6020830186611aba565b612a7a6040830185611bd0565b8181036060830152612a8c8184612a12565b905095945050505050565b600081519050612aa6816118e4565b92915050565b600060208284031215612ac257612ac16118ae565b5b6000612ad084828501612a97565b9150509291505056fea264697066735822122077dcceca25db46bf61cc1537a98108e44af883aff4a28abebdebf921ec7e97f464736f6c63430008150033",
  "linkReferences": {},
  "deployedLinkReferences": {}
}