{
  "_format": "hh-sol-artifact-1",
  "contractName": "OrganizationResolver",
  "sourceName": "contracts/BlockbadgeManraj.sol",
  "abi": [
    {
      "inputs": [
        {
          "internalType": "contract IEAS",
          "name": "eas",
          "type": "address"
        },
        {
          "internalType": "string",
          "name": "_organizationName",
          "type": "string"
        },
        {
          "internalType": "address[]",
          "name": "initialMembers",
          "type": "address[]"
        },
        {
          "internalType": "address",
          "name": "blockBadgeSBTAddress",
          "type": "address"
        }
      ],
      "stateMutability": "nonpayable",
      "type": "constructor"
    },
    {
      "inputs": [],
      "name": "AccessDenied",
      "type": "error"
    },
    {
      "inputs": [],
      "name": "InsufficientValue",
      "type": "error"
    },
    {
      "inputs": [],
      "name": "InvalidEAS",
      "type": "error"
    },
    {
      "inputs": [],
      "name": "InvalidLength",
      "type": "error"
    },
    {
      "inputs": [],
      "name": "NotPayable",
      "type": "error"
    },
    {
      "inputs": [
        {
          "internalType": "address",
          "name": "_address",
          "type": "address"
        }
      ],
      "name": "addToMembers",
      "outputs": [],
      "stateMutability": "nonpayable",
      "type": "function"
    },
    {
      "inputs": [
        {
          "components": [
            {
              "internalType": "bytes32",
              "name": "uid",
              "type": "bytes32"
            },
            {
              "internalType": "bytes32",
              "name": "schema",
              "type": "bytes32"
            },
            {
              "internalType": "uint64",
              "name": "time",
              "type": "uint64"
            },
            {
              "internalType": "uint64",
              "name": "expirationTime",
              "type": "uint64"
            },
            {
              "internalType": "uint64",
              "name": "revocationTime",
              "type": "uint64"
            },
            {
              "internalType": "bytes32",
              "name": "refUID",
              "type": "bytes32"
            },
            {
              "internalType": "address",
              "name": "recipient",
              "type": "address"
            },
            {
              "internalType": "address",
              "name": "attester",
              "type": "address"
            },
            {
              "internalType": "bool",
              "name": "revocable",
              "type": "bool"
            },
            {
              "internalType": "bytes",
              "name": "data",
              "type": "bytes"
            }
          ],
          "internalType": "struct Attestation",
          "name": "attestation",
          "type": "tuple"
        }
      ],
      "name": "attest",
      "outputs": [
        {
          "internalType": "bool",
          "name": "",
          "type": "bool"
        }
      ],
      "stateMutability": "payable",
      "type": "function"
    },
    {
      "inputs": [],
      "name": "blockBadgesbt",
      "outputs": [
        {
          "internalType": "contract BlockBadgeSBT",
          "name": "",
          "type": "address"
        }
      ],
      "stateMutability": "view",
      "type": "function"
    },
    {
      "inputs": [],
      "name": "getAllMembers",
      "outputs": [
        {
          "internalType": "address[]",
          "name": "",
          "type": "address[]"
        }
      ],
      "stateMutability": "view",
      "type": "function"
    },
    {
      "inputs": [
        {
          "internalType": "address",
          "name": "_address",
          "type": "address"
        }
      ],
      "name": "isOrganizationMember",
      "outputs": [
        {
          "internalType": "bool",
          "name": "",
          "type": "bool"
        }
      ],
      "stateMutability": "view",
      "type": "function"
    },
    {
      "inputs": [],
      "name": "isPayable",
      "outputs": [
        {
          "internalType": "bool",
          "name": "",
          "type": "bool"
        }
      ],
      "stateMutability": "pure",
      "type": "function"
    },
    {
      "inputs": [
        {
          "components": [
            {
              "internalType": "bytes32",
              "name": "uid",
              "type": "bytes32"
            },
            {
              "internalType": "bytes32",
              "name": "schema",
              "type": "bytes32"
            },
            {
              "internalType": "uint64",
              "name": "time",
              "type": "uint64"
            },
            {
              "internalType": "uint64",
              "name": "expirationTime",
              "type": "uint64"
            },
            {
              "internalType": "uint64",
              "name": "revocationTime",
              "type": "uint64"
            },
            {
              "internalType": "bytes32",
              "name": "refUID",
              "type": "bytes32"
            },
            {
              "internalType": "address",
              "name": "recipient",
              "type": "address"
            },
            {
              "internalType": "address",
              "name": "attester",
              "type": "address"
            },
            {
              "internalType": "bool",
              "name": "revocable",
              "type": "bool"
            },
            {
              "internalType": "bytes",
              "name": "data",
              "type": "bytes"
            }
          ],
          "internalType": "struct Attestation[]",
          "name": "attestations",
          "type": "tuple[]"
        },
        {
          "internalType": "uint256[]",
          "name": "values",
          "type": "uint256[]"
        }
      ],
      "name": "multiAttest",
      "outputs": [
        {
          "internalType": "bool",
          "name": "",
          "type": "bool"
        }
      ],
      "stateMutability": "payable",
      "type": "function"
    },
    {
      "inputs": [
        {
          "components": [
            {
              "internalType": "bytes32",
              "name": "uid",
              "type": "bytes32"
            },
            {
              "internalType": "bytes32",
              "name": "schema",
              "type": "bytes32"
            },
            {
              "internalType": "uint64",
              "name": "time",
              "type": "uint64"
            },
            {
              "internalType": "uint64",
              "name": "expirationTime",
              "type": "uint64"
            },
            {
              "internalType": "uint64",
              "name": "revocationTime",
              "type": "uint64"
            },
            {
              "internalType": "bytes32",
              "name": "refUID",
              "type": "bytes32"
            },
            {
              "internalType": "address",
              "name": "recipient",
              "type": "address"
            },
            {
              "internalType": "address",
              "name": "attester",
              "type": "address"
            },
            {
              "internalType": "bool",
              "name": "revocable",
              "type": "bool"
            },
            {
              "internalType": "bytes",
              "name": "data",
              "type": "bytes"
            }
          ],
          "internalType": "struct Attestation[]",
          "name": "attestations",
          "type": "tuple[]"
        },
        {
          "internalType": "uint256[]",
          "name": "values",
          "type": "uint256[]"
        }
      ],
      "name": "multiRevoke",
      "outputs": [
        {
          "internalType": "bool",
          "name": "",
          "type": "bool"
        }
      ],
      "stateMutability": "payable",
      "type": "function"
    },
    {
      "inputs": [],
      "name": "organizationName",
      "outputs": [
        {
          "internalType": "string",
          "name": "",
          "type": "string"
        }
      ],
      "stateMutability": "view",
      "type": "function"
    },
    {
      "inputs": [
        {
          "internalType": "address",
          "name": "_address",
          "type": "address"
        }
      ],
      "name": "removeFromMembers",
      "outputs": [],
      "stateMutability": "nonpayable",
      "type": "function"
    },
    {
      "inputs": [
        {
          "components": [
            {
              "internalType": "bytes32",
              "name": "uid",
              "type": "bytes32"
            },
            {
              "internalType": "bytes32",
              "name": "schema",
              "type": "bytes32"
            },
            {
              "internalType": "uint64",
              "name": "time",
              "type": "uint64"
            },
            {
              "internalType": "uint64",
              "name": "expirationTime",
              "type": "uint64"
            },
            {
              "internalType": "uint64",
              "name": "revocationTime",
              "type": "uint64"
            },
            {
              "internalType": "bytes32",
              "name": "refUID",
              "type": "bytes32"
            },
            {
              "internalType": "address",
              "name": "recipient",
              "type": "address"
            },
            {
              "internalType": "address",
              "name": "attester",
              "type": "address"
            },
            {
              "internalType": "bool",
              "name": "revocable",
              "type": "bool"
            },
            {
              "internalType": "bytes",
              "name": "data",
              "type": "bytes"
            }
          ],
          "internalType": "struct Attestation",
          "name": "attestation",
          "type": "tuple"
        }
      ],
      "name": "revoke",
      "outputs": [
        {
          "internalType": "bool",
          "name": "",
          "type": "bool"
        }
      ],
      "stateMutability": "payable",
      "type": "function"
    },
    {
      "inputs": [],
      "name": "version",
      "outputs": [
        {
          "internalType": "string",
          "name": "",
          "type": "string"
        }
      ],
      "stateMutability": "view",
      "type": "function"
    },
    {
      "stateMutability": "payable",
      "type": "receive"
    }
  ],
  "bytecode": "0x6101006040523480156200001257600080fd5b506040516200288e3803806200288e8339818101604052810190620000389190620006db565b8360016002600082608081815250508160a081815250508060c08181525050505050600073ffffffffffffffffffffffffffffffffffffffff168173ffffffffffffffffffffffffffffffffffffffff1603620000c1576040517f83780ffe00000000000000000000000000000000000000000000000000000000815260040160405180910390fd5b8073ffffffffffffffffffffffffffffffffffffffff1660e08173ffffffffffffffffffffffffffffffffffffffff16815250505060008251116200013d576040517f08c379a0000000000000000000000000000000000000000000000000000000008152600401620001349062000812565b60405180910390fd5b82600490816200014e919062000a7f565b5060005b82518110156200033657600083828151811062000174576200017362000b66565b5b60200260200101519050600160008273ffffffffffffffffffffffffffffffffffffffff1673ffffffffffffffffffffffffffffffffffffffff16815260200190815260200160002060009054906101000a900460ff16156200020e576040517f08c379a0000000000000000000000000000000000000000000000000000000008152600401620002059062000c0b565b60405180910390fd5b6000819080600181540180825580915050600190039060005260206000200160009091909190916101000a81548173ffffffffffffffffffffffffffffffffffffffff021916908373ffffffffffffffffffffffffffffffffffffffff16021790555060018060008373ffffffffffffffffffffffffffffffffffffffff1673ffffffffffffffffffffffffffffffffffffffff16815260200190815260200160002060006101000a81548160ff0219169083151502179055506001600080549050620002dc919062000c5c565b600260008373ffffffffffffffffffffffffffffffffffffffff1673ffffffffffffffffffffffffffffffffffffffff168152602001908152602001600020819055505080806200032d9062000c97565b91505062000152565b5080600560006101000a81548173ffffffffffffffffffffffffffffffffffffffff021916908373ffffffffffffffffffffffffffffffffffffffff16021790555033600360006101000a81548173ffffffffffffffffffffffffffffffffffffffff021916908373ffffffffffffffffffffffffffffffffffffffff1602179055505050505062000ce4565b6000604051905090565b600080fd5b600080fd5b600073ffffffffffffffffffffffffffffffffffffffff82169050919050565b60006200040482620003d7565b9050919050565b60006200041882620003f7565b9050919050565b6200042a816200040b565b81146200043657600080fd5b50565b6000815190506200044a816200041f565b92915050565b600080fd5b600080fd5b6000601f19601f8301169050919050565b7f4e487b7100000000000000000000000000000000000000000000000000000000600052604160045260246000fd5b620004a5826200045a565b810181811067ffffffffffffffff82111715620004c757620004c66200046b565b5b80604052505050565b6000620004dc620003c3565b9050620004ea82826200049a565b919050565b600067ffffffffffffffff8211156200050d576200050c6200046b565b5b62000518826200045a565b9050602081019050919050565b60005b838110156200054557808201518184015260208101905062000528565b60008484015250505050565b6000620005686200056284620004ef565b620004d0565b90508281526020810184848401111562000587576200058662000455565b5b6200059484828562000525565b509392505050565b600082601f830112620005b457620005b362000450565b5b8151620005c684826020860162000551565b91505092915050565b600067ffffffffffffffff821115620005ed57620005ec6200046b565b5b602082029050602081019050919050565b600080fd5b6200060e81620003f7565b81146200061a57600080fd5b50565b6000815190506200062e8162000603565b92915050565b60006200064b6200064584620005cf565b620004d0565b90508083825260208201905060208402830185811115620006715762000670620005fe565b5b835b818110156200069e57806200068988826200061d565b84526020840193505060208101905062000673565b5050509392505050565b600082601f830112620006c057620006bf62000450565b5b8151620006d284826020860162000634565b91505092915050565b60008060008060808587031215620006f857620006f7620003cd565b5b6000620007088782880162000439565b945050602085015167ffffffffffffffff8111156200072c576200072b620003d2565b5b6200073a878288016200059c565b935050604085015167ffffffffffffffff8111156200075e576200075d620003d2565b5b6200076c87828801620006a8565b92505060606200077f878288016200061d565b91505092959194509250565b600082825260208201905092915050565b7f4d7573742070726f76696465206174206c65617374206f6e65206d656d62657260008201527f2061646472657373000000000000000000000000000000000000000000000000602082015250565b6000620007fa6028836200078b565b915062000807826200079c565b604082019050919050565b600060208201905081810360008301526200082d81620007eb565b9050919050565b600081519050919050565b7f4e487b7100000000000000000000000000000000000000000000000000000000600052602260045260246000fd5b600060028204905060018216806200088757607f821691505b6020821081036200089d576200089c6200083f565b5b50919050565b60008190508160005260206000209050919050565b60006020601f8301049050919050565b600082821b905092915050565b600060088302620009077fffffffffffffffffffffffffffffffffffffffffffffffffffffffffffffffff82620008c8565b620009138683620008c8565b95508019841693508086168417925050509392505050565b6000819050919050565b6000819050919050565b6000620009606200095a62000954846200092b565b62000935565b6200092b565b9050919050565b6000819050919050565b6200097c836200093f565b620009946200098b8262000967565b848454620008d5565b825550505050565b600090565b620009ab6200099c565b620009b881848462000971565b505050565b5b81811015620009e057620009d4600082620009a1565b600181019050620009be565b5050565b601f82111562000a2f57620009f981620008a3565b62000a0484620008b8565b8101602085101562000a14578190505b62000a2c62000a2385620008b8565b830182620009bd565b50505b505050565b600082821c905092915050565b600062000a546000198460080262000a34565b1980831691505092915050565b600062000a6f838362000a41565b9150826002028217905092915050565b62000a8a8262000834565b67ffffffffffffffff81111562000aa65762000aa56200046b565b5b62000ab282546200086e565b62000abf828285620009e4565b600060209050601f83116001811462000af7576000841562000ae2578287015190505b62000aee858262000a61565b86555062000b5e565b601f19841662000b0786620008a3565b60005b8281101562000b315784890151825560018201915060208501945060208101905062000b0a565b8683101562000b51578489015162000b4d601f89168262000a41565b8355505b6001600288020188555050505b505050505050565b7f4e487b7100000000000000000000000000000000000000000000000000000000600052603260045260246000fd5b7f4475706c6963617465206d656d62657220616464726573732070726f7669646560008201527f6400000000000000000000000000000000000000000000000000000000000000602082015250565b600062000bf36021836200078b565b915062000c008262000b95565b604082019050919050565b6000602082019050818103600083015262000c268162000be4565b9050919050565b7f4e487b7100000000000000000000000000000000000000000000000000000000600052601160045260246000fd5b600062000c69826200092b565b915062000c76836200092b565b925082820390508181111562000c915762000c9062000c2d565b5b92915050565b600062000ca4826200092b565b91507fffffffffffffffffffffffffffffffffffffffffffffffffffffffffffffffff820362000cd95762000cd862000c2d565b5b600182019050919050565b60805160a05160c05160e051611b7062000d1e6000396000610e670152600061037901526000610350015260006103270152611b706000f3fe6080604052600436106100ab5760003560e01c8063a1bf713411610064578063a1bf7134146101ff578063ce46e0461461023c578063d95a12ac14610267578063e49617e114610290578063e60c3505146102c0578063f07894d2146102f0576100f0565b806354fd4d50146100f55780636c435494146101205780637c0f6b351461014b57806388e5b2d91461017657806391db0b7e146101a6578063a0cc6f40146101d6576100f0565b366100f0576100b861031b565b6100ee576040517f1574f9f300000000000000000000000000000000000000000000000000000000815260040160405180910390fd5b005b600080fd5b34801561010157600080fd5b5061010a610320565b6040516101179190611231565b60405180910390f35b34801561012c57600080fd5b506101356103c3565b6040516101429190611231565b60405180910390f35b34801561015757600080fd5b50610160610451565b60405161016d9190611343565b60405180910390f35b610190600480360381019061018b919061142a565b6104df565b60405161019d91906114c6565b60405180910390f35b6101c060048036038101906101bb919061142a565b6105fa565b6040516101cd91906114c6565b60405180910390f35b3480156101e257600080fd5b506101fd60048036038101906101f8919061150d565b610715565b005b34801561020b57600080fd5b506102266004803603810190610221919061150d565b610a47565b60405161023391906114c6565b60405180910390f35b34801561024857600080fd5b5061025161031b565b60405161025e91906114c6565b60405180910390f35b34801561027357600080fd5b5061028e6004803603810190610289919061150d565b610a9d565b005b6102aa60048036038101906102a5919061155f565b610d3b565b6040516102b791906114c6565b60405180910390f35b6102da60048036038101906102d5919061155f565b610d56565b6040516102e791906114c6565b60405180910390f35b3480156102fc57600080fd5b50610305610d71565b6040516103129190611607565b60405180910390f35b600090565b606061034b7f0000000000000000000000000000000000000000000000000000000000000000610d97565b6103747f0000000000000000000000000000000000000000000000000000000000000000610d97565b61039d7f0000000000000000000000000000000000000000000000000000000000000000610d97565b6040516020016103af939291906116aa565b604051602081830303815290604052905090565b600480546103d090611720565b80601f01602080910402602001604051908101604052809291908181526020018280546103fc90611720565b80156104495780601f1061041e57610100808354040283529160200191610449565b820191906000526020600020905b81548152906001019060200180831161042c57829003601f168201915b505050505081565b606060008054806020026020016040519081016040528092919081815260200182805480156104d557602002820191906000526020600020905b8160009054906101000a900473ffffffffffffffffffffffffffffffffffffffff1673ffffffffffffffffffffffffffffffffffffffff168152602001906001019080831161048b575b5050505050905090565b60006104e9610e65565b600085859050905083839050811461052d576040517f947d5a8400000000000000000000000000000000000000000000000000000000815260040160405180910390fd5b600034905060005b828110156105ea57600086868381811061055257610551611751565b5b90506020020135905082811115610595576040517f1101129400000000000000000000000000000000000000000000000000000000815260040160405180910390fd5b6105c38989848181106105ab576105aa611751565b5b90506020028101906105bd9190611785565b82610eec565b6105d45760009450505050506105f2565b8083039250506105e381610ef8565b9050610535565b506001925050505b949350505050565b6000610604610e65565b6000858590509050838390508114610648576040517f947d5a8400000000000000000000000000000000000000000000000000000000815260040160405180910390fd5b600034905060005b8281101561070557600086868381811061066d5761066c611751565b5b905060200201359050828111156106b0576040517f1101129400000000000000000000000000000000000000000000000000000000815260040160405180910390fd5b6106de8989848181106106c6576106c5611751565b5b90506020028101906106d89190611785565b82610f05565b6106ef57600094505050505061070d565b8083039250506106fe81610ef8565b9050610650565b506001925050505b949350505050565b600360009054906101000a900473ffffffffffffffffffffffffffffffffffffffff1673ffffffffffffffffffffffffffffffffffffffff163373ffffffffffffffffffffffffffffffffffffffff16146107a5576040517f08c379a000000000000000000000000000000000000000000000000000000000815260040161079c90611820565b60405180910390fd5b600160008273ffffffffffffffffffffffffffffffffffffffff1673ffffffffffffffffffffffffffffffffffffffff16815260200190815260200160002060009054906101000a900460ff16610831576040517f08c379a00000000000000000000000000000000000000000000000000000000081526004016108289061188c565b60405180910390fd5b6000600260008373ffffffffffffffffffffffffffffffffffffffff1673ffffffffffffffffffffffffffffffffffffffff168152602001908152602001600020549050600080600160008054905061088a91906118e5565b8154811061089b5761089a611751565b5b9060005260206000200160009054906101000a900473ffffffffffffffffffffffffffffffffffffffff16905080600083815481106108dd576108dc611751565b5b9060005260206000200160006101000a81548173ffffffffffffffffffffffffffffffffffffffff021916908373ffffffffffffffffffffffffffffffffffffffff16021790555081600260008373ffffffffffffffffffffffffffffffffffffffff1673ffffffffffffffffffffffffffffffffffffffff16815260200190815260200160002081905550600080548061097b5761097a611919565b5b6001900381819060005260206000200160006101000a81549073ffffffffffffffffffffffffffffffffffffffff02191690559055600160008473ffffffffffffffffffffffffffffffffffffffff1673ffffffffffffffffffffffffffffffffffffffff16815260200190815260200160002060006101000a81549060ff0219169055600260008473ffffffffffffffffffffffffffffffffffffffff1673ffffffffffffffffffffffffffffffffffffffff16815260200190815260200160002060009055505050565b6000600160008373ffffffffffffffffffffffffffffffffffffffff1673ffffffffffffffffffffffffffffffffffffffff16815260200190815260200160002060009054906101000a900460ff169050919050565b600360009054906101000a900473ffffffffffffffffffffffffffffffffffffffff1673ffffffffffffffffffffffffffffffffffffffff163373ffffffffffffffffffffffffffffffffffffffff1614610b2d576040517f08c379a0000000000000000000000000000000000000000000000000000000008152600401610b2490611820565b60405180910390fd5b600073ffffffffffffffffffffffffffffffffffffffff168173ffffffffffffffffffffffffffffffffffffffff1603610b9c576040517f08c379a0000000000000000000000000000000000000000000000000000000008152600401610b9390611994565b60405180910390fd5b600160008273ffffffffffffffffffffffffffffffffffffffff1673ffffffffffffffffffffffffffffffffffffffff16815260200190815260200160002060009054906101000a900460ff1615610c29576040517f08c379a0000000000000000000000000000000000000000000000000000000008152600401610c2090611a00565b60405180910390fd5b6000819080600181540180825580915050600190039060005260206000200160009091909190916101000a81548173ffffffffffffffffffffffffffffffffffffffff021916908373ffffffffffffffffffffffffffffffffffffffff16021790555060018060008373ffffffffffffffffffffffffffffffffffffffff1673ffffffffffffffffffffffffffffffffffffffff16815260200190815260200160002060006101000a81548160ff0219169083151502179055506001600080549050610cf591906118e5565b600260008373ffffffffffffffffffffffffffffffffffffffff1673ffffffffffffffffffffffffffffffffffffffff1681526020019081526020016000208190555050565b6000610d45610e65565b610d4f8234610eec565b9050919050565b6000610d60610e65565b610d6a8234610f05565b9050919050565b600560009054906101000a900473ffffffffffffffffffffffffffffffffffffffff1681565b606060006001610da68461104e565b01905060008167ffffffffffffffff811115610dc557610dc4611a20565b5b6040519080825280601f01601f191660200182016040528015610df75781602001600182028036833780820191505090505b509050600082602001820190505b600115610e5a578080600190039150507f3031323334353637383961626364656600000000000000000000000000000000600a86061a8153600a8581610e4e57610e4d611a4f565b5b04945060008503610e05575b819350505050919050565b7f000000000000000000000000000000000000000000000000000000000000000073ffffffffffffffffffffffffffffffffffffffff163373ffffffffffffffffffffffffffffffffffffffff1614610eea576040517f4ca8886700000000000000000000000000000000000000000000000000000000815260040160405180910390fd5b565b60006001905092915050565b6000600182019050919050565b6000600160008460e0016020810190610f1e919061150d565b73ffffffffffffffffffffffffffffffffffffffff1673ffffffffffffffffffffffffffffffffffffffff16815260200190815260200160002060009054906101000a900460ff16610fa5576040517f08c379a0000000000000000000000000000000000000000000000000000000008152600401610f9c90611af0565b60405180910390fd5b600560009054906101000a900473ffffffffffffffffffffffffffffffffffffffff1673ffffffffffffffffffffffffffffffffffffffff1663a031c8328460c0016020810190610ff6919061150d565b6040518263ffffffff1660e01b81526004016110129190611b1f565b600060405180830381600087803b15801561102c57600080fd5b505af1158015611040573d6000803e3d6000fd5b505050506001905092915050565b600080600090507a184f03e93ff9f4daa797ed6e38ed64bf6a1f01000000000000000083106110ac577a184f03e93ff9f4daa797ed6e38ed64bf6a1f01000000000000000083816110a2576110a1611a4f565b5b0492506040810190505b6d04ee2d6d415b85acef810000000083106110e9576d04ee2d6d415b85acef810000000083816110df576110de611a4f565b5b0492506020810190505b662386f26fc10000831061111857662386f26fc10000838161110e5761110d611a4f565b5b0492506010810190505b6305f5e1008310611141576305f5e100838161113757611136611a4f565b5b0492506008810190505b612710831061116657612710838161115c5761115b611a4f565b5b0492506004810190505b60648310611189576064838161117f5761117e611a4f565b5b0492506002810190505b600a8310611198576001810190505b80915050919050565b600081519050919050565b600082825260208201905092915050565b60005b838110156111db5780820151818401526020810190506111c0565b60008484015250505050565b6000601f19601f8301169050919050565b6000611203826111a1565b61120d81856111ac565b935061121d8185602086016111bd565b611226816111e7565b840191505092915050565b6000602082019050818103600083015261124b81846111f8565b905092915050565b600081519050919050565b600082825260208201905092915050565b6000819050602082019050919050565b600073ffffffffffffffffffffffffffffffffffffffff82169050919050565b60006112aa8261127f565b9050919050565b6112ba8161129f565b82525050565b60006112cc83836112b1565b60208301905092915050565b6000602082019050919050565b60006112f082611253565b6112fa818561125e565b93506113058361126f565b8060005b8381101561133657815161131d88826112c0565b9750611328836112d8565b925050600181019050611309565b5085935050505092915050565b6000602082019050818103600083015261135d81846112e5565b905092915050565b600080fd5b600080fd5b600080fd5b600080fd5b600080fd5b60008083601f8401126113945761139361136f565b5b8235905067ffffffffffffffff8111156113b1576113b0611374565b5b6020830191508360208202830111156113cd576113cc611379565b5b9250929050565b60008083601f8401126113ea576113e961136f565b5b8235905067ffffffffffffffff81111561140757611406611374565b5b60208301915083602082028301111561142357611422611379565b5b9250929050565b6000806000806040858703121561144457611443611365565b5b600085013567ffffffffffffffff8111156114625761146161136a565b5b61146e8782880161137e565b9450945050602085013567ffffffffffffffff8111156114915761149061136a565b5b61149d878288016113d4565b925092505092959194509250565b60008115159050919050565b6114c0816114ab565b82525050565b60006020820190506114db60008301846114b7565b92915050565b6114ea8161129f565b81146114f557600080fd5b50565b600081359050611507816114e1565b92915050565b60006020828403121561152357611522611365565b5b6000611531848285016114f8565b91505092915050565b600080fd5b600061014082840312156115565761155561153a565b5b81905092915050565b60006020828403121561157557611574611365565b5b600082013567ffffffffffffffff8111156115935761159261136a565b5b61159f8482850161153f565b91505092915050565b6000819050919050565b60006115cd6115c86115c38461127f565b6115a8565b61127f565b9050919050565b60006115df826115b2565b9050919050565b60006115f1826115d4565b9050919050565b611601816115e6565b82525050565b600060208201905061161c60008301846115f8565b92915050565b600081905092915050565b6000611638826111a1565b6116428185611622565b93506116528185602086016111bd565b80840191505092915050565b7f2e00000000000000000000000000000000000000000000000000000000000000600082015250565b6000611694600183611622565b915061169f8261165e565b600182019050919050565b60006116b6828661162d565b91506116c182611687565b91506116cd828561162d565b91506116d882611687565b91506116e4828461162d565b9150819050949350505050565b7f4e487b7100000000000000000000000000000000000000000000000000000000600052602260045260246000fd5b6000600282049050600182168061173857607f821691505b60208210810361174b5761174a6116f1565b5b50919050565b7f4e487b7100000000000000000000000000000000000000000000000000000000600052603260045260246000fd5b600080fd5b600082356001610140038336030381126117a2576117a1611780565b5b80830191505092915050565b7f4f6e6c7920746865206f776e65722063616e2063616c6c20746869732066756e60008201527f6374696f6e000000000000000000000000000000000000000000000000000000602082015250565b600061180a6025836111ac565b9150611815826117ae565b604082019050919050565b60006020820190508181036000830152611839816117fd565b9050919050565b7f41646472657373206973206e6f742061206d656d626572000000000000000000600082015250565b60006118766017836111ac565b915061188182611840565b602082019050919050565b600060208201905081810360008301526118a581611869565b9050919050565b6000819050919050565b7f4e487b7100000000000000000000000000000000000000000000000000000000600052601160045260246000fd5b60006118f0826118ac565b91506118fb836118ac565b9250828203905081811115611913576119126118b6565b5b92915050565b7f4e487b7100000000000000000000000000000000000000000000000000000000600052603160045260246000fd5b7f43616e6e6f7420616464207a65726f2061646472657373000000000000000000600082015250565b600061197e6017836111ac565b915061198982611948565b602082019050919050565b600060208201905081810360008301526119ad81611971565b9050919050565b7f4164647265737320697320616c72656164792061206d656d6265720000000000600082015250565b60006119ea601b836111ac565b91506119f5826119b4565b602082019050919050565b60006020820190508181036000830152611a19816119dd565b9050919050565b7f4e487b7100000000000000000000000000000000000000000000000000000000600052604160045260246000fd5b7f4e487b7100000000000000000000000000000000000000000000000000000000600052601260045260246000fd5b7f4e6f74206c69737465642c20706c656173652077686974656c6973742074686560008201527f2061646472657373000000000000000000000000000000000000000000000000602082015250565b6000611ada6028836111ac565b9150611ae582611a7e565b604082019050919050565b60006020820190508181036000830152611b0981611acd565b9050919050565b611b198161129f565b82525050565b6000602082019050611b346000830184611b10565b9291505056fea2646970667358221220d21f6945bb4f64cdf7b7db1afea63f6b069f600363097819f5a30432ff80a00264736f6c63430008150033",
  "linkReferences": {},
  "deployedLinkReferences": {}
}